{
  "cli": [
    "t8n",
    "--input.alloc=stdin",
    "--input.txs=stdin",
    "--input.env=stdin",
    "--output.result=stdout",
    "--output.alloc=stdout",
    "--output.body=stdout",
    "--state.fork=Cancun",
    "--state.chainid=1",
    "--state.reward=0",
    "--trace"
  ],
  "stdin": {
    "alloc": {
      "0xa94f5374fce5edbc8e2a8697c15331677e6ebf0b": {
        "nonce": "0x00",
        "balance": "0x01000000000000000000",
        "code": "0x",
        "storage": {}
      },
      "0x0000000000000000000000000000000000000100": {
        "nonce": "0x00",
        "balance": "0x01000000000000000000",
        "code": "0x366000600037604060003660006000601461c350f16000556000516001556020516002553d6003553d600060003e600051600455602051600555",
        "storage": {}
      }
    },
    "txs": [
      {
        "type": "0x2",
        "chainId": "0x1",
        "nonce": "0x0",
        "maxPriorityFeePerGas": "0x0",
        "maxFeePerGas": "0x7",
        "gas": "0xf4240",
        "value": "0x0",
        "input": "0x010657f37554c781402a22917dee2f75def7ab966d7b770905398eba3c44401473eda753299d7d483339d80809a1d80553bda402fffe5bfeffffffff000000000000000000000000000000000000000000000000000000000000000000000000c00000000000000000000000000000000000000000000000000000000000000000000000000000000000000000000000c00000000000000000000000000000000000000000000000000000000000000000000000000000000000000000000000",
        "to": "0x0000000000000000000000000000000000000100",
        "protected": true,
        "sender": "0xa94f5374fce5edbc8e2a8697c15331677e6ebf0b",
        "v": "0x0",
        "r": "0xcdcb82e08bcb8bb0eb6de7c1e142a910aa413891c9deeccd0c650737f5407307",
        "s": "0x6df091d7bdd64b38d24910e969040afa2f65abd8b0ddf8c42ce5e582edfcf4fe"
      }
    ],
    "env": {
      "currentCoinbase": "0x2adc25665018aa1fe0e6bc666dac8fc2697ff9ba",
      "currentGasLimit": "100000000000000000",
      "currentNumber": "1",
      "currentTimestamp": "12",
      "currentRandom": "0",
      "currentDifficulty": "0",
      "parentDifficulty": "0",
      "parentBaseFee": "7",
      "parentGasUsed": "0",
      "parentGasLimit": "100000000000000000",
      "parentTimestamp": "0",
      "blockHashes": {
        "0": "0xc8f11dc79f824010cf87dbefbcf53399120604e37edda4ab6b1c560dc82f4fc3"
      },
      "ommers": [],
      "withdrawals": [],
      "parentUncleHash": "0x1dcc4de8dec75d7aab85b567b6ccd41ad312451b948a7413f0a142fd40d49347",
      "parentDataGasUsed": "0",
      "parentExcessDataGas": "0"
    }
  },
  "stdout": {
    "alloc": {
      "0x0000000000000000000000000000000000000100": {
        "code": "0x366000600037604060003660006000601461c350f16000556000516001556020516002553d6003553d600060003e600051600455602051600555",
        "storage": {
          "0x0000000000000000000000000000000000000000000000000000000000000001": "0x010657f37554c781402a22917dee2f75def7ab966d7b770905398eba3c444014",
          "0x0000000000000000000000000000000000000000000000000000000000000002": "0x73eda753299d7d483339d80809a1d80553bda402fffe5bfeffffffff00000000",
          "0x0000000000000000000000000000000000000000000000000000000000000004": "0x010657f37554c781402a22917dee2f75def7ab966d7b770905398eba3c444014",
          "0x0000000000000000000000000000000000000000000000000000000000000005": "0x73eda753299d7d483339d80809a1d80553bda402fffe5bfeffffffff00000000"
        },
        "balance": "0x1000000000000000000"
      },
      "0xa94f5374fce5edbc8e2a8697c15331677e6ebf0b": {
        "balance": "0xffffffffffffee51ae",
        "nonce": "0x1"
      }
    },
    "body": "0xf9012bb9012802f9012401808007830f424094000000000000000000000000000000000000010080b8c0010657f37554c781402a22917dee2f75def7ab966d7b770905398eba3c44401473eda753299d7d483339d80809a1d80553bda402fffe5bfeffffffff000000000000000000000000000000000000000000000000000000000000000000000000c00000000000000000000000000000000000000000000000000000000000000000000000000000000000000000000000c00000000000000000000000000000000000000000000000000000000000000000000000000000000000000000000000c080a0cdcb82e08bcb8bb0eb6de7c1e142a910aa413891c9deeccd0c650737f5407307a06df091d7bdd64b38d24910e969040afa2f65abd8b0ddf8c42ce5e582edfcf4fe",
    "result": {
      "stateRoot": "0xa75b2277641acb89a5a200efdb49b22ace383f02dd5ac5777f86fe24db10053f",
      "txRoot": "0x23c2e283739049651d077fdfc364eb7d4e6f26c0eb394e58898f13fd4823519c",
      "receiptsRoot": "0x01e6b63174e42cf5232369498d6ba63697d6f3fd6d44a13cdb82372bafe6cd55",
      "logsHash": "0x1dcc4de8dec75d7aab85b567b6ccd41ad312451b948a7413f0a142fd40d49347",
      "logsBloom": "0x00000000000000000000000000000000000000000000000000000000000000000000000000000000000000000000000000000000000000000000000000000000000000000000000000000000000000000000000000000000000000000000000000000000000000000000000000000000000000000000000000000000000000000000000000000000000000000000000000000000000000000000000000000000000000000000000000000000000000000000000000000000000000000000000000000000000000000000000000000000000000000000000000000000000000000000000000000000000000000000000000000000000000000000000000000000",
      "receipts": [
        {
          "root": "0x",
          "status": "0x1",
          "cumulativeGasUsed": "0x2869e",
          "logsBloom": "0x00000000000000000000000000000000000000000000000000000000000000000000000000000000000000000000000000000000000000000000000000000000000000000000000000000000000000000000000000000000000000000000000000000000000000000000000000000000000000000000000000000000000000000000000000000000000000000000000000000000000000000000000000000000000000000000000000000000000000000000000000000000000000000000000000000000000000000000000000000000000000000000000000000000000000000000000000000000000000000000000000000000000000000000000000000000",
          "logs": null,
          "transactionHash": "0xb20b332d0cb65d0926120a2c65edf74e1a0a3b07240d2696be99d66c71e36022",
          "contractAddress": "0x0000000000000000000000000000000000000000",
          "gasUsed": "0x2869e",
          "blockHash": "0x0000000000000000000000000000000000000000000000000000000000000000",
          "transactionIndex": "0x0"
        }
      ],
      "currentDifficulty": null,
      "gasUsed": "0x2869e",
      "currentBaseFee": "0x7",
      "withdrawalsRoot": "0x56e81f171bcc55a6ff8345e692c0f86e5b48e01b996cadc001622fb5e363b421"
    }
  }
}